{
  "contractName": "ERC20T2",
  "abi": [
    {
      "anonymous": false,
      "inputs": [
        {
          "indexed": true,
          "internalType": "address",
          "name": "owner",
          "type": "address"
        },
        {
          "indexed": true,
          "internalType": "address",
          "name": "spender",
          "type": "address"
        },
        {
          "indexed": false,
          "internalType": "uint256",
          "name": "value",
          "type": "uint256"
        }
      ],
      "name": "Approval",
      "type": "event"
    },
    {
      "anonymous": false,
      "inputs": [
        {
          "indexed": true,
          "internalType": "address",
          "name": "previousOwner",
          "type": "address"
        },
        {
          "indexed": true,
          "internalType": "address",
          "name": "newOwner",
          "type": "address"
        }
      ],
      "name": "OwnershipTransferred",
      "type": "event"
    },
    {
      "anonymous": false,
      "inputs": [
        {
          "indexed": true,
          "internalType": "address",
          "name": "from",
          "type": "address"
        },
        {
          "indexed": true,
          "internalType": "address",
          "name": "to",
          "type": "address"
        },
        {
          "indexed": false,
          "internalType": "uint256",
          "name": "value",
          "type": "uint256"
        }
      ],
      "name": "Transfer",
      "type": "event"
    },
    {
      "inputs": [],
      "name": "owner",
      "outputs": [
        {
          "internalType": "address",
          "name": "",
          "type": "address"
        }
      ],
      "stateMutability": "view",
      "type": "function",
      "constant": true
    },
    {
      "inputs": [],
      "name": "renounceOwnership",
      "outputs": [],
      "stateMutability": "nonpayable",
      "type": "function"
    },
    {
      "inputs": [
        {
          "internalType": "address",
          "name": "newOwner",
          "type": "address"
        }
      ],
      "name": "transferOwnership",
      "outputs": [],
      "stateMutability": "nonpayable",
      "type": "function"
    },
    {
      "inputs": [],
      "name": "name",
      "outputs": [
        {
          "internalType": "string",
          "name": "",
          "type": "string"
        }
      ],
      "stateMutability": "view",
      "type": "function",
      "constant": true
    },
    {
      "inputs": [],
      "name": "symbol",
      "outputs": [
        {
          "internalType": "string",
          "name": "",
          "type": "string"
        }
      ],
      "stateMutability": "view",
      "type": "function",
      "constant": true
    },
    {
      "inputs": [],
      "name": "decimals",
      "outputs": [
        {
          "internalType": "uint8",
          "name": "",
          "type": "uint8"
        }
      ],
      "stateMutability": "view",
      "type": "function",
      "constant": true
    },
    {
      "inputs": [],
      "name": "totalSupply",
      "outputs": [
        {
          "internalType": "uint256",
          "name": "",
          "type": "uint256"
        }
      ],
      "stateMutability": "view",
      "type": "function",
      "constant": true
    },
    {
      "inputs": [
        {
          "internalType": "address",
          "name": "account",
          "type": "address"
        }
      ],
      "name": "balanceOf",
      "outputs": [
        {
          "internalType": "uint256",
          "name": "",
          "type": "uint256"
        }
      ],
      "stateMutability": "view",
      "type": "function",
      "constant": true
    },
    {
      "inputs": [
        {
          "internalType": "address",
          "name": "recepient",
          "type": "address"
        },
        {
          "internalType": "uint256",
          "name": "amount",
          "type": "uint256"
        }
      ],
      "name": "transfer",
      "outputs": [
        {
          "internalType": "bool",
          "name": "",
          "type": "bool"
        }
      ],
      "stateMutability": "nonpayable",
      "type": "function"
    },
    {
      "inputs": [
        {
          "internalType": "address",
          "name": "owner",
          "type": "address"
        },
        {
          "internalType": "address",
          "name": "spender",
          "type": "address"
        }
      ],
      "name": "allowance",
      "outputs": [
        {
          "internalType": "uint256",
          "name": "",
          "type": "uint256"
        }
      ],
      "stateMutability": "view",
      "type": "function",
      "constant": true
    },
    {
      "inputs": [
        {
          "internalType": "address",
          "name": "spender",
          "type": "address"
        },
        {
          "internalType": "uint256",
          "name": "amount",
          "type": "uint256"
        }
      ],
      "name": "approve",
      "outputs": [
        {
          "internalType": "bool",
          "name": "",
          "type": "bool"
        }
      ],
      "stateMutability": "nonpayable",
      "type": "function"
    },
    {
      "inputs": [
        {
          "internalType": "address",
          "name": "sender",
          "type": "address"
        },
        {
          "internalType": "address",
          "name": "recipient",
          "type": "address"
        },
        {
          "internalType": "uint256",
          "name": "amount",
          "type": "uint256"
        }
      ],
      "name": "transferFrom",
      "outputs": [
        {
          "internalType": "bool",
          "name": "",
          "type": "bool"
        }
      ],
      "stateMutability": "nonpayable",
      "type": "function"
    },
    {
      "inputs": [
        {
          "internalType": "address",
          "name": "to",
          "type": "address"
        },
        {
          "internalType": "uint256",
          "name": "amount",
          "type": "uint256"
        }
      ],
      "name": "mint",
      "outputs": [],
      "stateMutability": "nonpayable",
      "type": "function"
    },
    {
      "inputs": [
        {
          "internalType": "address",
          "name": "from",
          "type": "address"
        },
        {
          "internalType": "uint256",
          "name": "amount",
          "type": "uint256"
        }
      ],
      "name": "burn",
      "outputs": [],
      "stateMutability": "nonpayable",
      "type": "function"
    }
  ],
  "bytecode": "0x60806040526040518060400160405280601181526020017f4552432d3230205465737420546f6b656e0000000000000000000000000000008152506001908051906020019062000051929190620001c1565b506040518060400160405280600781526020017f4552433230543200000000000000000000000000000000000000000000000000815250600290805190602001906200009f929190620001c1565b506012600360006101000a81548160ff021916908360ff1602179055506000600455348015620000ce57600080fd5b50620000ef620000e3620000f560201b60201c565b620000fd60201b60201c565b620002d6565b600033905090565b60008060009054906101000a900473ffffffffffffffffffffffffffffffffffffffff169050816000806101000a81548173ffffffffffffffffffffffffffffffffffffffff021916908373ffffffffffffffffffffffffffffffffffffffff1602179055508173ffffffffffffffffffffffffffffffffffffffff168173ffffffffffffffffffffffffffffffffffffffff167f8be0079c531659141344cd1fd0a4f28419497f9722a3daafe3b4186f6b6457e060405160405180910390a35050565b828054620001cf90620002a0565b90600052602060002090601f016020900481019282620001f357600085556200023f565b82601f106200020e57805160ff19168380011785556200023f565b828001600101855582156200023f579182015b828111156200023e57825182559160200191906001019062000221565b5b5090506200024e919062000252565b5090565b5b808211156200026d57600081600090555060010162000253565b5090565b7f4e487b7100000000000000000000000000000000000000000000000000000000600052602260045260246000fd5b60006002820490506001821680620002b957607f821691505b60208210811415620002d057620002cf62000271565b5b50919050565b611bc980620002e66000396000f3fe608060405234801561001057600080fd5b50600436106100ea5760003560e01c8063715018a61161008c5780639dc29fac116100665780639dc29fac1461023b578063a9059cbb14610257578063dd62ed3e14610287578063f2fde38b146102b7576100ea565b8063715018a6146101f55780638da5cb5b146101ff57806395d89b411461021d576100ea565b806323b872dd116100c857806323b872dd1461015b578063313ce5671461018b57806340c10f19146101a957806370a08231146101c5576100ea565b806306fdde03146100ef578063095ea7b31461010d57806318160ddd1461013d575b600080fd5b6100f76102d3565b60405161010491906111dd565b60405180910390f35b61012760048036038101906101229190611298565b610365565b60405161013491906112f3565b60405180910390f35b61014561037c565b604051610152919061131d565b60405180910390f35b61017560048036038101906101709190611338565b610386565b60405161018291906112f3565b60405180910390f35b6101936104f0565b6040516101a091906113a7565b60405180910390f35b6101c360048036038101906101be9190611298565b610507565b005b6101df60048036038101906101da91906113c2565b6106cc565b6040516101ec919061131d565b60405180910390f35b6101fd610715565b005b61020761079d565b60405161021491906113fe565b60405180910390f35b6102256107c6565b60405161023291906111dd565b60405180910390f35b61025560048036038101906102509190611298565b610858565b005b610271600480360381019061026c9190611298565b610a9f565b60405161027e91906112f3565b60405180910390f35b6102a1600480360381019061029c9190611419565b610ab6565b6040516102ae919061131d565b60405180910390f35b6102d160048036038101906102cc91906113c2565b610b3d565b005b6060600180546102e290611488565b80601f016020809104026020016040519081016040528092919081815260200182805461030e90611488565b801561035b5780601f106103305761010080835404028352916020019161035b565b820191906000526020600020905b81548152906001019060200180831161033e57829003601f168201915b5050505050905090565b6000610372338484610c35565b6001905092915050565b6000600454905090565b600081600660008673ffffffffffffffffffffffffffffffffffffffff1673ffffffffffffffffffffffffffffffffffffffff16815260200190815260200160002060003373ffffffffffffffffffffffffffffffffffffffff1673ffffffffffffffffffffffffffffffffffffffff168152602001908152602001600020541015610447576040517f08c379a000000000000000000000000000000000000000000000000000000000815260040161043e9061152c565b60405180910390fd5b610452848484610e00565b81600660008673ffffffffffffffffffffffffffffffffffffffff1673ffffffffffffffffffffffffffffffffffffffff16815260200190815260200160002060003373ffffffffffffffffffffffffffffffffffffffff1673ffffffffffffffffffffffffffffffffffffffff16815260200190815260200160002060008282546104de919061157b565b92505081905550600190509392505050565b6000600360009054906101000a900460ff16905090565b61050f611078565b73ffffffffffffffffffffffffffffffffffffffff1661052d61079d565b73ffffffffffffffffffffffffffffffffffffffff1614610583576040517f08c379a000000000000000000000000000000000000000000000000000000000815260040161057a906115fb565b60405180910390fd5b600073ffffffffffffffffffffffffffffffffffffffff168273ffffffffffffffffffffffffffffffffffffffff1614156105f3576040517f08c379a00000000000000000000000000000000000000000000000000000000081526004016105ea9061168d565b60405180910390fd5b806004600082825461060591906116ad565b9250508190555080600560008473ffffffffffffffffffffffffffffffffffffffff1673ffffffffffffffffffffffffffffffffffffffff168152602001908152602001600020600082825461065b91906116ad565b925050819055508173ffffffffffffffffffffffffffffffffffffffff16600073ffffffffffffffffffffffffffffffffffffffff167fddf252ad1be2c89b69c2b068fc378daa952ba7f163c4a11628f55a4df523b3ef836040516106c0919061131d565b60405180910390a35050565b6000600560008373ffffffffffffffffffffffffffffffffffffffff1673ffffffffffffffffffffffffffffffffffffffff168152602001908152602001600020549050919050565b61071d611078565b73ffffffffffffffffffffffffffffffffffffffff1661073b61079d565b73ffffffffffffffffffffffffffffffffffffffff1614610791576040517f08c379a0000000000000000000000000000000000000000000000000000000008152600401610788906115fb565b60405180910390fd5b61079b6000611080565b565b60008060009054906101000a900473ffffffffffffffffffffffffffffffffffffffff16905090565b6060600280546107d590611488565b80601f016020809104026020016040519081016040528092919081815260200182805461080190611488565b801561084e5780601f106108235761010080835404028352916020019161084e565b820191906000526020600020905b81548152906001019060200180831161083157829003601f168201915b5050505050905090565b610860611078565b73ffffffffffffffffffffffffffffffffffffffff1661087e61079d565b73ffffffffffffffffffffffffffffffffffffffff16146108d4576040517f08c379a00000000000000000000000000000000000000000000000000000000081526004016108cb906115fb565b60405180910390fd5b600073ffffffffffffffffffffffffffffffffffffffff168273ffffffffffffffffffffffffffffffffffffffff161415610944576040517f08c379a000000000000000000000000000000000000000000000000000000000815260040161093b90611775565b60405180910390fd5b80600560008473ffffffffffffffffffffffffffffffffffffffff1673ffffffffffffffffffffffffffffffffffffffff1681526020019081526020016000205410156109c6576040517f08c379a00000000000000000000000000000000000000000000000000000000081526004016109bd90611807565b60405180910390fd5b80600460008282546109d8919061157b565b9250508190555080600560008473ffffffffffffffffffffffffffffffffffffffff1673ffffffffffffffffffffffffffffffffffffffff1681526020019081526020016000206000828254610a2e919061157b565b92505081905550600073ffffffffffffffffffffffffffffffffffffffff168273ffffffffffffffffffffffffffffffffffffffff167fddf252ad1be2c89b69c2b068fc378daa952ba7f163c4a11628f55a4df523b3ef83604051610a93919061131d565b60405180910390a35050565b6000610aac338484610e00565b6001905092915050565b6000600660008473ffffffffffffffffffffffffffffffffffffffff1673ffffffffffffffffffffffffffffffffffffffff16815260200190815260200160002060008373ffffffffffffffffffffffffffffffffffffffff1673ffffffffffffffffffffffffffffffffffffffff16815260200190815260200160002054905092915050565b610b45611078565b73ffffffffffffffffffffffffffffffffffffffff16610b6361079d565b73ffffffffffffffffffffffffffffffffffffffff1614610bb9576040517f08c379a0000000000000000000000000000000000000000000000000000000008152600401610bb0906115fb565b60405180910390fd5b600073ffffffffffffffffffffffffffffffffffffffff168173ffffffffffffffffffffffffffffffffffffffff161415610c29576040517f08c379a0000000000000000000000000000000000000000000000000000000008152600401610c2090611899565b60405180910390fd5b610c3281611080565b50565b600073ffffffffffffffffffffffffffffffffffffffff168373ffffffffffffffffffffffffffffffffffffffff161415610ca5576040517f08c379a0000000000000000000000000000000000000000000000000000000008152600401610c9c9061192b565b60405180910390fd5b600073ffffffffffffffffffffffffffffffffffffffff168273ffffffffffffffffffffffffffffffffffffffff161415610d15576040517f08c379a0000000000000000000000000000000000000000000000000000000008152600401610d0c906119bd565b60405180910390fd5b80600660008573ffffffffffffffffffffffffffffffffffffffff1673ffffffffffffffffffffffffffffffffffffffff16815260200190815260200160002060008473ffffffffffffffffffffffffffffffffffffffff1673ffffffffffffffffffffffffffffffffffffffff168152602001908152602001600020819055508173ffffffffffffffffffffffffffffffffffffffff168373ffffffffffffffffffffffffffffffffffffffff167f8c5be1e5ebec7d5bd14f71427d1e84f3dd0314c0f7b2291e5b200ac8c7c3b92583604051610df3919061131d565b60405180910390a3505050565b600073ffffffffffffffffffffffffffffffffffffffff168373ffffffffffffffffffffffffffffffffffffffff161415610e70576040517f08c379a0000000000000000000000000000000000000000000000000000000008152600401610e6790611a4f565b60405180910390fd5b600073ffffffffffffffffffffffffffffffffffffffff168273ffffffffffffffffffffffffffffffffffffffff161415610ee0576040517f08c379a0000000000000000000000000000000000000000000000000000000008152600401610ed790611ae1565b60405180910390fd5b80600560008573ffffffffffffffffffffffffffffffffffffffff1673ffffffffffffffffffffffffffffffffffffffff168152602001908152602001600020541015610f62576040517f08c379a0000000000000000000000000000000000000000000000000000000008152600401610f5990611b73565b60405180910390fd5b80600560008573ffffffffffffffffffffffffffffffffffffffff1673ffffffffffffffffffffffffffffffffffffffff1681526020019081526020016000206000828254610fb1919061157b565b9250508190555080600560008473ffffffffffffffffffffffffffffffffffffffff1673ffffffffffffffffffffffffffffffffffffffff168152602001908152602001600020600082825461100791906116ad565b925050819055508173ffffffffffffffffffffffffffffffffffffffff168373ffffffffffffffffffffffffffffffffffffffff167fddf252ad1be2c89b69c2b068fc378daa952ba7f163c4a11628f55a4df523b3ef8360405161106b919061131d565b60405180910390a3505050565b600033905090565b60008060009054906101000a900473ffffffffffffffffffffffffffffffffffffffff169050816000806101000a81548173ffffffffffffffffffffffffffffffffffffffff021916908373ffffffffffffffffffffffffffffffffffffffff1602179055508173ffffffffffffffffffffffffffffffffffffffff168173ffffffffffffffffffffffffffffffffffffffff167f8be0079c531659141344cd1fd0a4f28419497f9722a3daafe3b4186f6b6457e060405160405180910390a35050565b600081519050919050565b600082825260208201905092915050565b60005b8381101561117e578082015181840152602081019050611163565b8381111561118d576000848401525b50505050565b6000601f19601f8301169050919050565b60006111af82611144565b6111b9818561114f565b93506111c9818560208601611160565b6111d281611193565b840191505092915050565b600060208201905081810360008301526111f781846111a4565b905092915050565b600080fd5b600073ffffffffffffffffffffffffffffffffffffffff82169050919050565b600061122f82611204565b9050919050565b61123f81611224565b811461124a57600080fd5b50565b60008135905061125c81611236565b92915050565b6000819050919050565b61127581611262565b811461128057600080fd5b50565b6000813590506112928161126c565b92915050565b600080604083850312156112af576112ae6111ff565b5b60006112bd8582860161124d565b92505060206112ce85828601611283565b9150509250929050565b60008115159050919050565b6112ed816112d8565b82525050565b600060208201905061130860008301846112e4565b92915050565b61131781611262565b82525050565b6000602082019050611332600083018461130e565b92915050565b600080600060608486031215611351576113506111ff565b5b600061135f8682870161124d565b93505060206113708682870161124d565b925050604061138186828701611283565b9150509250925092565b600060ff82169050919050565b6113a18161138b565b82525050565b60006020820190506113bc6000830184611398565b92915050565b6000602082840312156113d8576113d76111ff565b5b60006113e68482850161124d565b91505092915050565b6113f881611224565b82525050565b600060208201905061141360008301846113ef565b92915050565b600080604083850312156114305761142f6111ff565b5b600061143e8582860161124d565b925050602061144f8582860161124d565b9150509250929050565b7f4e487b7100000000000000000000000000000000000000000000000000000000600052602260045260246000fd5b600060028204905060018216806114a057607f821691505b602082108114156114b4576114b3611459565b5b50919050565b7f43616e6e6f74207472616e736665722064756520746f20696e7375666669636960008201527f656e7420616c6c6f77616e63652e000000000000000000000000000000000000602082015250565b6000611516602e8361114f565b9150611521826114ba565b604082019050919050565b6000602082019050818103600083015261154581611509565b9050919050565b7f4e487b7100000000000000000000000000000000000000000000000000000000600052601160045260246000fd5b600061158682611262565b915061159183611262565b9250828210156115a4576115a361154c565b5b828203905092915050565b7f4f776e61626c653a2063616c6c6572206973206e6f7420746865206f776e6572600082015250565b60006115e560208361114f565b91506115f0826115af565b602082019050919050565b60006020820190508181036000830152611614816115d8565b9050919050565b7f43616e6e6f74206d696e74206e657720746f6b656e7320746f20746865207a6560008201527f726f20616464726573732e000000000000000000000000000000000000000000602082015250565b6000611677602b8361114f565b91506116828261161b565b604082019050919050565b600060208201905081810360008301526116a68161166a565b9050919050565b60006116b882611262565b91506116c383611262565b9250827fffffffffffffffffffffffffffffffffffffffffffffffffffffffffffffffff038211156116f8576116f761154c565b5b828201905092915050565b7f43616e6e6f74206275726e20746f6b656e732066726f6d20746865207a65726f60008201527f20616464726573732e0000000000000000000000000000000000000000000000602082015250565b600061175f60298361114f565b915061176a82611703565b604082019050919050565b6000602082019050818103600083015261178e81611752565b9050919050565b7f43616e6e6f74206275726e20746f6b656e732064756520746f20696e7375666660008201527f696369656e742062616c616e63652e0000000000000000000000000000000000602082015250565b60006117f1602f8361114f565b91506117fc82611795565b604082019050919050565b60006020820190508181036000830152611820816117e4565b9050919050565b7f4f776e61626c653a206e6577206f776e657220697320746865207a65726f206160008201527f6464726573730000000000000000000000000000000000000000000000000000602082015250565b600061188360268361114f565b915061188e82611827565b604082019050919050565b600060208201905081810360008301526118b281611876565b9050919050565b7f43616e6e6f7420617070726f766520616c6c6f77616e63652066726f6d20746860008201527f65207a65726f20616464726573732e0000000000000000000000000000000000602082015250565b6000611915602f8361114f565b9150611920826118b9565b604082019050919050565b6000602082019050818103600083015261194481611908565b9050919050565b7f43616e6e6f7420617070726f766520616c6c6f77616e636520746f207468652060008201527f7a65726f20616464726573732e00000000000000000000000000000000000000602082015250565b60006119a7602d8361114f565b91506119b28261194b565b604082019050919050565b600060208201905081810360008301526119d68161199a565b9050919050565b7f43616e6e6f74207472616e736665722066726f6d20746865207a65726f20616460008201527f64726573732e0000000000000000000000000000000000000000000000000000602082015250565b6000611a3960268361114f565b9150611a44826119dd565b604082019050919050565b60006020820190508181036000830152611a6881611a2c565b9050919050565b7f43616e6e6f74207472616e7366657220746f20746865207a65726f206164647260008201527f6573732e00000000000000000000000000000000000000000000000000000000602082015250565b6000611acb60248361114f565b9150611ad682611a6f565b604082019050919050565b60006020820190508181036000830152611afa81611abe565b9050919050565b7f43616e6e6f74207472616e736665722064756520746f20696e7375666669636960008201527f656e742062616c616e63652e0000000000000000000000000000000000000000602082015250565b6000611b5d602c8361114f565b9150611b6882611b01565b604082019050919050565b60006020820190508181036000830152611b8c81611b50565b905091905056fea2646970667358221220926eb38886ac472f475a8e177598680cb577c9870987a283aac6648fdfe856d264736f6c634300080a0033",
  "immutableReferences": {},
  "source": "// SPDX-License-Identifier: Apache-2.0\r\npragma solidity ^0.8.2;\r\n\r\nimport \"@openzeppelin/contracts/token/ERC20/IERC20.sol\";\r\nimport \"@openzeppelin/contracts/token/ERC20/extensions/IERC20Metadata.sol\";\r\nimport \"@openzeppelin/contracts/access/Ownable.sol\";\r\n\r\n// Custom ERC-20 implementation\r\ncontract ERC20T2 is IERC20, IERC20Metadata, Ownable {\r\n\r\n  // The name of the token\r\n  string private _name = \"ERC-20 Test Token\";\r\n\r\n  // The symbol of the token\r\n  string private _symbol = \"ERC20T2\";\r\n\r\n  // The number of decimals the token uses\r\n  uint8 private _decimals = 18;\r\n\r\n  // The total amount of tokens available\r\n  uint256 private _totalSupply = 0;\r\n\r\n  // Mapping balances to account addresses\r\n  mapping(address => uint256) _balances;\r\n\r\n  // Mapping allowances to account addresses;\r\n  mapping(address => mapping(address => uint256)) _allowances;\r\n\r\n  // Get the name of the token\r\n  function name() external view returns (string memory) {\r\n    return _name;\r\n  }\r\n\r\n  // Get the symbol of the token\r\n  function symbol() external view returns (string memory) {\r\n    return _symbol;\r\n  }\r\n\r\n  // Get the number of decimals the token uses\r\n  function decimals() external view returns (uint8) {\r\n    return _decimals;\r\n  }\r\n\r\n  // Get the total amount of tokens available\r\n  function totalSupply() external view returns (uint256) {\r\n    return _totalSupply;\r\n  }\r\n\r\n  // Get the balance of an account by its address\r\n  function balanceOf(address account) external view returns (uint256) {\r\n    return _balances[account];\r\n  }\r\n\r\n  // Transfer `amount` of tokens from the caller to `recepient`\r\n  function transfer(address recepient, uint256 amount) external returns (bool) {\r\n    _transfer(msg.sender, recepient, amount);\r\n    return true;\r\n  }\r\n\r\n  // Check the allowance of `spender` by `owner`\r\n  function allowance(address owner, address spender) external view returns (uint256) {\r\n    return _allowances[owner][spender];\r\n  }\r\n\r\n  // Approve `spender` an allowance of `amount` tokens\r\n  function approve(address spender, uint256 amount) external returns (bool) {\r\n    _approve(msg.sender, spender, amount);\r\n    return true;\r\n  }\r\n\r\n  // Transfer `amount` of tokens to `recipient` from `sender`\r\n  function transferFrom(address sender, address recipient, uint256 amount) external returns (bool) {\r\n    require(_allowances[sender][msg.sender] >= amount, \"Cannot transfer due to insufficient allowance.\");\r\n    _transfer(sender, recipient, amount);\r\n    _allowances[sender][msg.sender] -= amount;\r\n    return true;\r\n  }\r\n\r\n  // Internal function to perform approvals\r\n  function _approve(address owner, address spender, uint256 amount) private {\r\n    require(owner != address(0), \"Cannot approve allowance from the zero address.\");\r\n    require(spender != address(0), \"Cannot approve allowance to the zero address.\");\r\n    _allowances[owner][spender] = amount;\r\n    emit Approval(owner, spender, amount);\r\n  }\r\n\r\n  // Internal function to perform transfers\r\n  function _transfer(address from, address to, uint256 amount) private {\r\n    require(from != address(0), \"Cannot transfer from the zero address.\");\r\n    require(to != address(0), \"Cannot transfer to the zero address.\");\r\n    require(_balances[from] >= amount, \"Cannot transfer due to insufficient balance.\");\r\n    _balances[from] -= amount;\r\n    _balances[to] += amount;\r\n    emit Transfer(from, to, amount);\r\n  }\r\n\r\n  // Mint `amount` of new tokens to address `to`\r\n  function mint(address to, uint256 amount) public onlyOwner() {\r\n    require(to != address(0), \"Cannot mint new tokens to the zero address.\");\r\n    _totalSupply += amount;\r\n    _balances[to] += amount;\r\n    emit Transfer(address(0), to, amount);\r\n  }\r\n\r\n  // Burn `amount` of tokens from the address `from`\r\n  function burn(address from, uint256 amount) public onlyOwner() {\r\n    require(from != address(0), \"Cannot burn tokens from the zero address.\");\r\n    require(_balances[from] >= amount, \"Cannot burn tokens due to insufficient balance.\");\r\n    _totalSupply -= amount;\r\n    _balances[from] -= amount;\r\n    emit Transfer(from, address(0), amount);\r\n  }\r\n\r\n}\r\n",
  "sourcePath": "C:\\Users\\NeoAren\\Documents\\GitHub\\ERC20T2\\contracts\\ERC20T2.sol",
  "compiler": {
    "name": "solc",
    "version": "0.8.10+commit.fc410830.Emscripten.clang"
  },
  "schemaVersion": "3.4.4",
  "updatedAt": "2022-01-12T12:48:13.190Z",
  "networkType": "ethereum",
  "devdoc": {
    "kind": "dev",
    "methods": {
      "allowance(address,address)": {
        "details": "Returns the remaining number of tokens that `spender` will be allowed to spend on behalf of `owner` through {transferFrom}. This is zero by default. This value changes when {approve} or {transferFrom} are called."
      },
      "approve(address,uint256)": {
        "details": "Sets `amount` as the allowance of `spender` over the caller's tokens. Returns a boolean value indicating whether the operation succeeded. IMPORTANT: Beware that changing an allowance with this method brings the risk that someone may use both the old and the new allowance by unfortunate transaction ordering. One possible solution to mitigate this race condition is to first reduce the spender's allowance to 0 and set the desired value afterwards: https://github.com/ethereum/EIPs/issues/20#issuecomment-263524729 Emits an {Approval} event."
      },
      "balanceOf(address)": {
        "details": "Returns the amount of tokens owned by `account`."
      },
      "decimals()": {
        "details": "Returns the decimals places of the token."
      },
      "name()": {
        "details": "Returns the name of the token."
      },
      "owner()": {
        "details": "Returns the address of the current owner."
      },
      "renounceOwnership()": {
        "details": "Leaves the contract without owner. It will not be possible to call `onlyOwner` functions anymore. Can only be called by the current owner. NOTE: Renouncing ownership will leave the contract without an owner, thereby removing any functionality that is only available to the owner."
      },
      "symbol()": {
        "details": "Returns the symbol of the token."
      },
      "totalSupply()": {
        "details": "Returns the amount of tokens in existence."
      },
      "transferFrom(address,address,uint256)": {
        "details": "Moves `amount` tokens from `sender` to `recipient` using the allowance mechanism. `amount` is then deducted from the caller's allowance. Returns a boolean value indicating whether the operation succeeded. Emits a {Transfer} event."
      },
      "transferOwnership(address)": {
        "details": "Transfers ownership of the contract to a new account (`newOwner`). Can only be called by the current owner."
      }
    },
    "version": 1
  },
  "userdoc": {
    "kind": "user",
    "methods": {},
    "version": 1
  }
}